{
  "contractName": "MyToken",
  "abi": [
    {
      "constant": true,
      "inputs": [],
      "name": "decimal",
      "outputs": [
        {
          "internalType": "uint256",
          "name": "",
          "type": "uint256"
        }
      ],
      "payable": false,
      "stateMutability": "view",
      "type": "function"
    },
    {
      "constant": true,
      "inputs": [],
      "name": "name",
      "outputs": [
        {
          "internalType": "string",
          "name": "",
          "type": "string"
        }
      ],
      "payable": false,
      "stateMutability": "view",
      "type": "function"
    },
    {
      "constant": true,
      "inputs": [],
      "name": "symbol",
      "outputs": [
        {
          "internalType": "string",
          "name": "",
          "type": "string"
        }
      ],
      "payable": false,
      "stateMutability": "view",
      "type": "function"
    },
    {
      "constant": true,
      "inputs": [],
      "name": "total_supply",
      "outputs": [
        {
          "internalType": "uint256",
          "name": "",
          "type": "uint256"
        }
      ],
      "payable": false,
      "stateMutability": "view",
      "type": "function"
    },
    {
      "constant": true,
      "inputs": [
        {
          "internalType": "address",
          "name": "user",
          "type": "address"
        }
      ],
      "name": "balanceOf",
      "outputs": [
        {
          "internalType": "uint256",
          "name": "",
          "type": "uint256"
        }
      ],
      "payable": false,
      "stateMutability": "view",
      "type": "function"
    },
    {
      "constant": true,
      "inputs": [],
      "name": "tokens_network",
      "outputs": [
        {
          "internalType": "uint256",
          "name": "",
          "type": "uint256"
        }
      ],
      "payable": false,
      "stateMutability": "view",
      "type": "function"
    },
    {
      "constant": false,
      "inputs": [
        {
          "internalType": "address",
          "name": "user",
          "type": "address"
        },
        {
          "internalType": "string",
          "name": "activity",
          "type": "string"
        }
      ],
      "name": "activities",
      "outputs": [
        {
          "internalType": "uint256",
          "name": "",
          "type": "uint256"
        }
      ],
      "payable": false,
      "stateMutability": "nonpayable",
      "type": "function"
    },
    {
      "constant": true,
      "inputs": [
        {
          "internalType": "address",
          "name": "user",
          "type": "address"
        },
        {
          "internalType": "uint256",
          "name": "ind",
          "type": "uint256"
        }
      ],
      "name": "acti_comp",
      "outputs": [
        {
          "internalType": "string",
          "name": "",
          "type": "string"
        }
      ],
      "payable": false,
      "stateMutability": "view",
      "type": "function"
    }
  ],
  "bytecode": "0x60806040526000805534801561001457600080fd5b50610684806100246000396000f3fe608060405234801561001057600080fd5b50600436106100885760003560e01c806376809ce31161005b57806376809ce31461017657806395d89b411461017e578063b4eda37e14610186578063e45a85321461018e57610088565b806306fdde031461008d5780633940e9ee1461010a5780636a86e2951461012457806370a0823114610150575b600080fd5b610095610244565b6040805160208082528351818301528351919283929083019185019080838360005b838110156100cf5781810151838201526020016100b7565b50505050905090810190601f1680156100fc5780820380516001836020036101000a031916815260200191505b509250505060405180910390f35b610112610267565b60408051918252519081900360200190f35b6100956004803603604081101561013a57600080fd5b506001600160a01b03813516906020013561026d565b6101126004803603602081101561016657600080fd5b50356001600160a01b0316610331565b61011261034c565b610095610351565b610112610370565b610112600480360360408110156101a457600080fd5b6001600160a01b0382351691908101906040810160208201356401000000008111156101cf57600080fd5b8201836020820111156101e157600080fd5b8035906020019184600183028401116401000000008311171561020357600080fd5b91908080601f016020809104026020016040519081016040528093929190818152602001838380828437600092019190915250929550610377945050505050565b604051806040016040528060078152602001662334b621b7b4b760c91b81525081565b60005481565b6001600160a01b03821660009081526002602052604090208054606091908390811061029557fe5b600091825260209182902001805460408051601f60026000196101006001871615020190941693909304928301859004850281018501909152818152928301828280156103235780601f106102f857610100808354040283529160200191610323565b820191906000526020600020905b81548152906001019060200180831161030657829003601f168201915b505050505090505b92915050565b6001600160a01b031660009081526001602052604090205490565b601281565b6040518060400160405280600381526020016246694360e81b81525081565b6000545b90565b60408051808201909152600781526672656164696e6760c81b6020918201528151908201206000907f9c27cdf9f99318310a2002fd19106d59beb5e830352ed29db7149d6c408f0b9d141561043b576001600160a01b03831660009081526001602081815260408084208054600a908101909155845401845560028252808420805493840180825590855293829020815180830190925260078083526672656164696e6760c81b929093019182526104309301916105b7565b50506001905061032b565b604080518082019091526004815263626c6f6760e01b6020918201528251908301207fcde4cd6b52d73ab8b48d94499748f27fbc44a2064376c9cf7a787f01e0dc0d2f14156104f6576001600160a01b0383166000908152600160208181526040808420805460149081019091558454018455600282528084208054938401808255908552938290208151808301909252600480835263626c6f6760e01b929093019182526104eb9301916105b7565b50506002905061032b565b6040805180820190915260078152663bb2b134b730b960c91b6020918201528251908301207fa1dcc1d1809ef55c6e072bacdb9ac04ea14fe74144ca6009f2786f88949a15d5141561032b576001600160a01b03831660009081526001602081815260408084208054601e90810190915584540184556002825280842080549384018082559085529382902081518083019092526007808352663bb2b134b730b960c91b929093019182526105ac9301916105b7565b50506003905061032b565b828054600181600116156101000203166002900490600052602060002090601f016020900481019282601f106105f857805160ff1916838001178555610625565b82800160010185558215610625579182015b8281111561062557825182559160200191906001019061060a565b50610631929150610635565b5090565b61037491905b80821115610631576000815560010161063b56fea265627a7a7231582089af8f7a2cee286967b5b41d8de0787f7a400284ae5bfbcff39500b9d422fdf064736f6c63430005100032",
  "source": "pragma solidity ^0.5.16;\r\n\r\n//Contract for prototype\r\ncontract MyToken{\r\n\r\n    string public constant name = \"FilCoin\";\r\n    string public constant symbol = \"FiC\";\r\n    uint public constant decimal = 18;\r\n    uint public total_supply = 0;\r\n\r\n    //creating a map to keep the token balance of each individual\r\n    mapping(address => uint) token_balance;\r\n\r\n    //creating a map to keep the track of activities completed\r\n    mapping(address => string[]) activities_comp;\r\n\r\n    //function to provide the token blance of a user\r\n    function balanceOf(address user) public view returns(uint){\r\n        return token_balance[user];\r\n    }\r\n\r\n    //function to provide the total supply of coins available in the network\r\n    function tokens_network() public view returns(uint){\r\n        return total_supply;\r\n    }\r\n\r\n    //function to update the token balance of a user on completion of an activity\r\n    function activities(address user, string memory activity) public returns(uint){\r\n        \r\n        if(keccak256(bytes(activity)) == keccak256(bytes(\"reading\"))){\r\n            token_balance[user] +=10;\r\n            total_supply +=10;\r\n            activities_comp[user].push(\"reading\");\r\n            return 1;\r\n        }\r\n\r\n        else if(keccak256(bytes(activity)) == keccak256(bytes(\"blog\"))){\r\n            token_balance[user] +=20;\r\n            total_supply +=20;\r\n            activities_comp[user].push(\"blog\");\r\n            return 2;\r\n        }\r\n\r\n        else if(keccak256(bytes(activity)) == keccak256(bytes(\"webinar\"))){\r\n            token_balance[user] +=30;\r\n            total_supply +=30;\r\n            activities_comp[user].push(\"webinar\");\r\n            return 3;\r\n        }\r\n\r\n    }\r\n\r\n    //function to check the activities compeleted by the user present at a particular index\r\n    function acti_comp(address user, uint ind) public view returns(string memory){\r\n        return activities_comp[user][ind];\r\n    }\r\n\r\n}  ",
  "sourcePath": "C:\\Users\\A719646\\OneDrive - FIL\\Desktop\\Prototype\\contracts\\MyToken.sol",
  "compiler": {
    "name": "solc",
    "version": "0.5.16+commit.9c3226ce.Emscripten.clang"
  },
  "schemaVersion": "3.4.7",
  "updatedAt": "2022-05-23T06:10:23.391Z",
  "devdoc": {
    "methods": {}
  },
  "userdoc": {
    "methods": {}
  }
}